S01700005445545249535F41544D45474133322E73726563BF
S11300000C943B000C9458000C9458000C94580029
S11300100C9458000C9458000C9458000C945800FC
S11300200C9458000C9458000C9403060C9458003B
S11300300C9458000C9458000C9458000C945800DC
S11300400C9458000C9458000C9458000C945800CC
S11300500C945800690073007D00870091009B0098
S1130060A500A306A706AB06AF06B306B706BB06F4
S1130070BF06C306C70611241FBECFE5D8E0DEBF06
S1130080CDBF10E0A0E6B0E0EAEAFFE002C00590D0
S11300900D92AC39B107D9F721E0ACE9B0E001C069
S11300A01D92A237B207E1F70E947E050C94D30794
S11300B00C9400000E94600767E070E00E94E6066E
S11300C08730910508F04AC0FC01E65DFF4F0C94AF
S11300D0FA0688E0E4E9F0E0A1EAB0E001900D92CC
S11300E08A95E1F7089588E0ECE8F0E0A1EAB0E051
S11300F001900D928A95E1F7089588E0E4E8F0E034
S1130100A1EAB0E001900D928A95E1F7089588E0A4
S1130110ECE7F0E0A1EAB0E001900D928A95E1F7F6
S1130120089588E0E4E7F0E0A1EAB0E001900D92E0
S11301308A95E1F7089588E0ECE6F0E0A1EAB0E002
S113014001900D928A95E1F7089588E0E4E6F0E0E5
S1130150A1EAB0E001900D928A95E1F70895A1EA31
S1130160B0E011968C9111972C9190E0FC01EE0F68
S1130170FF1F880F991F880F991F880F991FE80F79
S1130180F91FE755FF4FE20FF11D908113962C9153
S1130190139712968C91129730E0F901EE0FFF1F1E
S11301A0220F331F220F331F220F331FE20FF31FBF
S11301B0E755FF4FE80FF11D8081892B15962C918F
S11301C0159714969C91149730E0F901EE0FFF1FD8
S11301D0220F331F220F331F220F331FE20FF31F8F
S11301E0E755FF4FE90FF11D9081892B17962C914C
S11301F0179716969C9130E0F901EE0FFF1F220F1E
S1130200331F220F331F220F331FE20FF31FE75553
S1130210FF4FE90FF11D9081892B91E08927089503
S1130220A1EAB0E011968C91119790E02C91FC0119
S1130230EE0FFF1F880F991F880F991F880F991FB2
S1130240E80FF91FE755FF4FE20FF11D10821396D7
S11302508C91139790E012962C911297FC01EE0F5B
S1130260FF1F880F991F880F991F880F991FE80F88
S1130270F91FE755FF4FE20FF11D108215968C917F
S1130280159790E014962C911497FC01EE0FFF1F24
S1130290880F991F880F991F880F991FE80FF91F5E
S11302A0E755FF4FE20FF11D108217968C911797B7
S11302B090E016962C91FC01EE0FFF1F880F991FFA
S11302C0880F991F880F991FE80FF91FE755FF4FF3
S11302D0E20FF11D108208950E9410018091A20086
S11302E0833108F06CC02091A400233108F069C068
S11302F05091A600533108F066C04091A8004331E4
S113030008F063C090E00196A1EAB0E03C91FC01E2
S1130310EE0FFF1F880F991F880F991F880F991FD1
S1130320E80FF91FE755FF4FE30FF11D908130E00F
S11303302F5F3F4F12968C911297F901EE0FFF1F1A
S1130340220F331F220F331F220F331FE20FF31F1D
S1130350E755FF4FE80FF11D8081892B252F30E0F1
S11303602F5F3F4F14969C911497F901EE0FFF1FD6
S1130370220F331F220F331F220F331FE20FF31FED
S1130380E755FF4FE90FF11D9081892B50E04F5F36
S11303905F4F16969C91FA01EE0FFF1F440F551FF5
S11303A0440F551F440F551FE40FF51FE755FF4F2A
S11303B0E90FF11D9081892B91E08927089580E050
S11303C0089580E0089580E0089580E00895CF9333
S11303D0DF930E941001E091A100E93009F47CC090
S11303E06091A300693009F479C03091A5003930D7
S11303F009F476C02091A700293009F473C0A1EA5A
S1130400B0E011964C911197F0E0CF01019650E0C5
S1130410FA01EE0FFF1F440F551F440F551F440FE1
S1130420551FE40FF51FE755FF4FE80FF91FE08153
S113043013969C91139770E0AB014F5F5F4F692F48
S113044070E0CB01880F991F660F771F660F771F27
S1130450660F771F680F791F67557F4FEB01C40F35
S1130460D51F88818E2B15969C911597432F50E0AC
S1130470BA016F5F7F4F492F50E0FA01EE0FFF1F63
S1130480440F551F440F551F440F551F4E0F5F1F38
S113049047555F4FFA01E60FF71F9081892B179696
S11304A09C9130E0A9014F5F5F4F292F30E0B901E3
S11304B0660F771F220F331F220F331F220F331FA4
S11304C0260F371F27553F4FF901E40FF51F908181
S11304D0892B91E0892707C080E005C080E003C034
S11304E080E001C080E0DF91CF910895CF93DF9346
S11304F00E941001E091A100EE2309F47BC0209139
S1130500A300222309F478C04091A500442309F4F0
S113051075C06091A700662309F472C0A1EAB0E037
S11305201196CC911197F0E0CF010197D0E0FE0134
S1130530EE0FFF1FCC0FDD1FCC0FDD1FCC0FDD1F17
S1130540EC0FFD1FE755FF4FE80FF91F908113963D
S1130550CC911397E22FF0E09F0121503109D0E0B4
S1130560FE01EE0FFF1FCC0FDD1FCC0FDD1FCC0FE4
S1130570DD1FEC0FFD1FE755FF4FE20FF31F8081D6
S1130580892B15969C911597E42FF0E09F0121503B
S11305903109492F50E0FA01EE0FFF1F440F551F98
S11305A0440F551F440F551FE40FF51FE755FF4F28
S11305B0E20FF31F9081892B17969C91262F30E030
S11305C0B90161507109292F30E0A901440F551F69
S11305D0220F331F220F331F220F331F240F351F07
S11305E027553F4FF901E60FF71F9081892B91E0C2
S11305F0892707C080E005C080E003C080E001C017
S113060080E0DF91CF910895A1EAB0E011968C913A
S1130610119790E02C91FC01EE0FFF1F880F991F9A
S1130620880F991F880F991FE80FF91FE755FF4F8F
S1130630E20FF11D21E0208313968C91139790E033
S113064012963C911297FC01EE0FFF1F880F991F21
S1130650880F991F880F991FE80FF91FE755FF4F5F
S1130660E30FF11D208315968C91159790E0149655
S11306703C911497FC01EE0FFF1F880F991F880F00
S1130680991F880F991FE80FF91FE755FF4FE30FD4
S1130690F11D208317968C91179790E016963C9144
S11306A0FC01EE0FFF1F880F991F880F991F880FF9
S11306B0991FE80FF91FE755FF4FE30FF11D208342
S11306C00895DF92EF92FF920F931F93CF93DF93DE
S11306D0CDB7DEB728970FB6F894DEBF0FBECDBFF7
S11306E080E090E01CC0A1EAB0E08C01000F111F73
S11306F0A8014F555F4FFA0120813C9161E070E001
S11307006C0F7D1F060F171F231BF8012083FA01AE
S1130710218111963C91231BF80121830196843099
S113072091050CF381E090E00FC0FC01EE0FFF1F78
S113073021E030E02C0F3D1FE20FF31F30812181B7
S113074021952083318301968430910574F380E0F0
S113075090E015C0FC01EE0FFF1F61E070E06C0F2C
S11307607D1FE60FF71F3081A1EAB0E02C91230F23
S11307702083318111962C91230F2183019684309B
S1130780910544F3D980EB8011E079E07D1508F000
S113079010E081E099E09E1508F080E0182BFD80C0
S11307A081E0E9E0EF1508F080E00F8191E00A3084
S11307B008F490E0812B182F192B0E9410018A81D4
S11307C090E0FC01EE0FFF1F880F991F880F991FFF
S11307D0880F991FE80FF91FE755FF4FED0DF11D25
S11307E020818C8190E0FC01EE0FFF1F880F991F80
S11307F0880F991F880F991FE80FF91FE755FF4FBE
S1130800EE0DF11D8081282B8E8190E0FC01EE0F0E
S1130810FF1F880F991F880F991F880F991FE80FD2
S1130820F91FE755FF4FEF0DF11D9081292B8885A6
S113083090E0FC01EE0FFF1F880F991F880F991F8E
S1130840880F991FE80FF91FE755FF4FE00FF11DBF
S11308509081822F892B182B69F48091A000882322
S113086049F088E0FE013196A1EAB0E001900D92D2
S11308708A95E1F70E94040328960FB6F894DEBF28
S11308800FBECDBFDF91CF911F910F91FF90EF90DD
S1130890DF900895E1EAF0E081818F5F81838381B5
S11308A08F5F838385818F5F858387818F5F878354
S11308B00E9404030895E1EAF0E080818F5F808361
S11308C082818F5F828384818F5F848386818F5F3F
S11308D086830E9404030895E1EAF0E08081815058
S11308E08083828181508283848181508483868144
S11308F0815086830E940403089560E063C083E10D
S113090090E0861B9109FC01EE0FFF1F880F991FD1
S1130910880F991F880F991FE80FF91FE755FF4F9C
S1130920E20FF11D808181113F5F2F5F02C020E043
S113093030E02A3020F33A3009F043C0AFEFA60F7D
S113094033C0462F50E023E130E0241B350B82E115
S113095090E0841B950B472F50E0FC01EE0FFF1F26
S1130960880F991F880F991F880F991FE80FF91F87
S1130970E755FF4FE40FF51F8081F901EE0FFF1FCC
S1130980220F331F220F331F220F331F2E0F3F1F3F
S113099027553F4FF901E40FF51F80837F5F01C0A6
S11309A070E07A3070F26F5F6431D0F380E006C09B
S11309B0E82FF0E0E755FF4F10828F5F8A30C0F3D5
S11309C06A2F6F5F643108F4B2CF089530E01BC022
S11309D0832F90E0FC01EE0FFF1F880F991F880FF3
S11309E0991F880F991FE80FF91FE755FF4FE20F72
S11309F0F11D908181E0892780832F5F01C020E071
S1130A002A3030F33F5F3431D0F3089540E018C00A
S1130A10242F30E0F901EE0FFF1F220F331F220FA6
S1130A20331F220F331FE20FF31FE755FF4FE90F68
S1130A30F11D80839F5F01C090E09A3048F34F5FBF
S1130A404431D0F308950E94E6042FEF89E698E13B
S1130A50215080409040E1F700C000000E94E6046D
S1130A602FEF89E698E1215080409040E1F700C0E3
S1130A7000000E94E6042FEF89E698E121508040AF
S1130A809040E1F700C000000E94E6042FEF89E6E1
S1130A9098E1215080409040E1F700C0000080E0E0
S1130AA00E9406051092A0002FEF89E698E12150DC
S1130AB080409040E1F700C000000895F8948FEF63
S1130AC08ABB8BBB87BB18BA84BB85BB90EF91BB39
S1130AD082BB8CBF82E089BF8BE083BF109271011F
S1130AE088B3816088BB2FEF83ED90E32150804071
S1130AF09040E1F700C00000789408958FE192E0FF
S1130B000E9465070E945E058091A000882371F011
S1130B100E946C01882319F00E944A0417C00E94A5
S1130B2004031092A0000E947D0410C081E0809311
S1130B30A0000E945A000E94AF00882319F00E946E
S1130B40040304C00E9404030E94230580919D00B5
S1130B50882339F08FE59AEE0197F1F700C0000081
S1130B60D3CF9FEF24E38CE0915020408040E1F705
S1130B7000C00000C9CFCF93C0B3C0FD11C08091A5
S1130B809F0081110FC081E080939F000E94760234
S1130B90882319F00E946C0405C00E94040302C05B
S1130BA010929F00C1FD11C080919E0081110FC061
S1130BB081E080939E000E94E701882319F00E943F
S1130BC05B0405C00E94040302C010929E00C2FD93
S1130BD008C080919D00811106C081E080939D0032
S1130BE002C010929D00C3FD0AC080919C00811137
S1130BF008C081E080939C000E94610302C01092AF
S1130C009C00CF9108951F920F920FB60F9211245A
S1130C102F933F934F935F936F937F938F939F9300
S1130C20AF93BF93EF93FF930E94BB058FEF8BBBF2
S1130C3085BB82BB81E088BB20E030E021C04091CD
S1130C407101F901EE0FFF1FC901880F991F880F69
S1130C50991F880F991FE80FF91FE755FF4FE40FFD
S1130C60F11D808190E0022E02C0880F991F0A9422
S1130C70E2F7809590959BB389238BBB2F5F3F4F01
S1130C8028303105E4F228E030E024C040917101BD
S1130C90F901EE0FFF1FC901880F991F880F991FD3
S1130CA0880F991FE80FF91FE755FF4FE40FF11D57
S1130CB080814FE050E0421B530B90E002C0880F4C
S1130CC0991F4A95E2F78095909595B3892385BB42
S1130CD02F5F3F4F20313105CCF220E130E024C0BA
S1130CE040917101F901EE0FFF1FC901880F991F8F
S1130CF0880F991F880F991FE80FF91FE755FF4FB9
S1130D00E40FF11D808147E150E0421B530B90E05A
S1130D1002C0880F991F4A95E2F78095909592B387
S1130D20892382BB2F5F3F4F24313105CCF2E09100
S1130D3071018E2F90E08A30910560F5FC01EF5C23
S1130D40FF4F0C94FA0688B38C6088BB23C088B329
S1130D50846188BB1FC088B3846288BB1BC088B30E
S1130D60846488BB17C088B3846888BB13C088B305
S1130D70826888BB0FC088B3826488BB0BC088B309
S1130D80826288BB07C088B3826188BB03C088B312
S1130D908A6088BB809171018F5F8093710180911B
S1130DA071018A3011F410927101FF91EF91BF919A
S1130DB0AF919F918F917F916F915F914F913F91EF
S1130DC02F910F900FBE0F901F90189597FB072E31
S1130DD016F4009407D077FD09D00E94000707FCA1
S1130DE005D03EF4909581959F4F08957095619537
S1130DF07F4F0895EE0FFF1F0590F491E02D0994A5
S1130E00AA1BBB1B51E107C0AA1FBB1FA617B7072C
S1130E1010F0A61BB70B881F991F5A95A9F7809548
S1130E209095BC01CD0108958F929F92AF92BF928D
S1130E30CF92DF92EF92FF92CF93DF93EC01688120
S1130E4079818A819B81611571058105910521F460
S1130E5064E279ED8BE597E02DE133EF41E050E07A
S1130E600E94700749015A019B01AC01A7EAB1E451
S1130E700E948F076B017C01ACEEB4EFA5019401D5
S1130E800E949D07DC01CB018C0D9D1DAE1DBF1D75
S1130E90B7FF03C00197A109B04888839983AA8347
S1130EA0BB839F77DF91CF91FF90EF90DF90CF903E
S1130EB0BF90AF909F908F9008950E94140708955B
S1130EC080E690E00E9414070895A0E0B0E08093CB
S1130ED0600090936100A0936200B0936300089552
S1130EE0052E97FB1EF400940E94870757FD07D038
S1130EF00E94A20707FC03D04EF40C948707509578
S1130F004095309521953F4F4F4F5F4F08959095F1
S1130F108095709561957F4F8F4F9F4F08950E94E4
S1130F20C407A59F900DB49F900DA49F800D911DA3
S1130F3011240895B7FF0C948F070E948F07821B1A
S1130F40930B0895A1E21A2EAA1BBB1BFD010DC031
S1130F50AA1FBB1FEE1FFF1FA217B307E407F50765
S1130F6020F0A21BB30BE40BF50B661F771F881F41
S1130F70991F1A9469F760957095809590959B01D7
S1130F80AC01BD01CF010895A29FB001B39FC00180
S1130F90A39F700D811D1124911DB29F700D811DA1
S10D0FA01124911D0895F894FFCF69
S1130FAA0100000004000300050006000401050115
S1130FBA04000500040103010501040005010601FA
S1130FCA05000401040103010400050005010601EA
S10F0FDA040104000401030105010500EA
S9030000FC
